:020000002129B4
:10000800A100030EA0000B18D220200E8300A10E21
:10001800210E09000F3982073F3406345B344F3410
:1000280066346D347D3407347F34673400340034EB
:100038000034003400340034AF012E088207292828
:100048002E2834283B284228472886100611861176
:10005800AD01080086140130AD003308A90008007E
:10006800861006152908B0003408A90008000611F2
:1000780086152908B1003508A90008000615861458
:100088002908B20008000430AE0008000230B900A8
:10009800380882075828652872287F288C289928CC
:1000A800A628B328BE28B8013508A800850106107F
:1000B800051585150517A6032608063C0319B80A71
:1000C80008003508A80085010610051585150517CF
:1000D800A6032608033C0319B80A08003508A80037
:1000E80085010610851485150517A6032608003C0A
:1000F8000319B80A08003308A6008501061005147C
:1001080085160517A7032708063C0319B80A08002F
:100118003308A60085010610051485160517A703E0
:100128002708033C0319B80A08003508A800850108
:100138000610051405160517A7032708003C031920
:10014800B80A08003408A7008501061005148515AB
:100158000614A8032808063C0319B80A08008501F4
:100168000610051485150614A8032808033C03196E
:10017800B80A080085010610051485158517A80317
:100188002808003C0319B80A08000C100B308F002F
:10019800DB308E00B90303194A2008002308A200A7
:1001A8000608A3000B10221BDE28231FDE28AE0A38
:1001B8000130AF002E08043C031D0C29221A052922
:1001C800231E05293008B300A6003108A600B40094
:1001D8003208B500A8000130AF00AE01B8018701B0
:1001E800051485150517A521851405168517A5215C
:1001F800051585160614A521850106100515851512
:100208000517A21A0C29A31E0C29AE010130AF0054
:10021800221A1629231AA90A2908153C031D16298A
:100228000A30A900A21A0800A31AA9032908093C40
:10023800031D08001430A90008008316031788015D
:100248008901831603138501870188018601061633
:10025800861606178113811281110111811001146C
:100268008B170B178B151616161796168312101365
:1002780090161016901010140B308F00DB308E0083
:1002880082308E00FF308F000630810085018601A4
:100298008701803088000A30A600A700A800A900BE
:1002A800B300B400B500FF30A5000030AD00AE00CB
:1002B800FF30A300A2000130AF000230B900B8013E
:1002C8000515851505170B196E210C18C9202F184F
:1002D800202067298B130B1106308100A50A031013
:1002E8008701881B880D880D2D1C95210818260864
:1002F800881826080819270888192708081A2808B6
:10030800881A2808081B2908881B2908AC00992185
:10031800251C90292A0891292B080E2087008B1765
:1003280008000130081B88000800AB01AA010A3048
:100338002C02031CA229AC00AB0A9B292C08AA009A
:100348000800FF30B700AB21B70BA7290800FF3022
:08035800B600B60BAD29080048
:04400E00D420FF3F7C
:00000001FF
