:020000004D2889
:10000800F100030EF0000B182020700E8300F10E93
:10001800710E09000F3982073F3406345B344F34C0
:1000280066346D347D3407347F34673400340034EB
:1000380000340034003400347308F2000608F3007A
:100048000B10721B2C28731F2C28FE0A7E088500B3
:100058007E08013C031931280800721A3B28731ADC
:10006800F60A7608153C031D3B280A30F600F21AFA
:100078000800F31AF6037608093C031D080014303B
:10008800F60008000C100B308F00DB308E00F60AEB
:100098000800831603178801890183160313850155
:1000A80087018801860106168616061781138112B4
:1000B80081110111811001148B170B178B1516165E
:1000C8001617961683121013901610169010101407
:1000D8000B308F00DB308E0082308E00FF308F00B7
:1000E80006308100850186018701803088000A304A
:1000F800F600F700F800F900FF30F5000030FD00C9
:10010800FE00FF30F300F2000B198B2088288B13B8
:100118000B1106308100F50A03108701881B880D32
:10012800880D7D18B22008187608881876080819EE
:10013800770888197708081A7808881A7808081B31
:100148007908881B7908FC00B620751CAD287A0848
:10015800AE287B080E2087008B1708000130081B8B
:1001680088000800FB01FA010A307C02031CBF2842
:0C017800FC00FB0AB8287C08FA00080014
:04400E00D420FF3F7C
:00000001FF
