:020000008C284A
:10000800A100030EA0000B184C20200E8300A10EA7
:10001800210E09000F3982073F3406345B344F3410
:1000280066346D347D3407347F34673400340034EB
:100038000034003400340034AF012E088207292828
:10004800302836283D28442849288610061186116C
:1000580001308500AD01080086140130AD00260886
:10006800A9000800861006152908B0002708A9006D
:100078000800061186152908B1002808A9000800FB
:10008800061586142908B20008000430AE000800DE
:100098002308A2000608A3000B10221B5828231FC0
:1000A8005828AE0A0130AF002E08043C031D702802
:1000B800221A6928231E69283008A6003108A700DB
:1000C8003208A8000130AF00AE01A21A7028A31EA2
:1000D8007028AE010130AF00221A7A28231AA90A23
:1000E8002908153C031D7A280A30A900A21A08001D
:1000F800A31AA9032908093C031D08001430A90004
:1001080008000C100B308F00DB308E00A60A0800A8
:100118008316031788018901831603138501870154
:100128008801860106168616061781138112811129
:100138000111811001148B170B178B151616161742
:1001480096168312101390161016901010140B3078
:100158008F00DB308E0082308E00FF308F0006303B
:100168008100850186018701803088000A30A60059
:10017800A700A800A900FF30A5000030AD00AE0020
:10018800FF30A300A2000130AF000B19CE202F18BA
:100198002020C9288B130B1106308100A50A0310F3
:1001A8008701881B880D880D2D1CF5200818260846
:1001B800881826080819270888192708081A2808F7
:1001C800881A2808081B2908881B2908AC00F92068
:1001D800251CF0282A08F1282B080E2087008B17E9
:1001E80008000130081B88000800AB01AA010A308A
:1001F8002C02031C0229AC00AB0AFB282C08AA001D
:020208000800EC
:04400E00D420FF3F7C
:00000001FF
