:020000003E2997
:10000800A100030EA0000B18EC208C18DE20200E97
:100018008300A10E210E09000F3982073F340634F0
:100028005B344F3466346D347D3407347F346F3439
:10003800003400340034003400340034AF012E089A
:1000480082072B28302836283D284428492886103E
:1000580006118611AD01080086140130AD00330881
:10006800A9000800861006152908B0003408A90060
:100078000800061186152908B1003508A9000800EE
:10008800061586142908B20008000430AE000800DE
:100098000230B900380882075A28672872287D2854
:1000A8008A289628A128AE28BA28B8013508A800B9
:1000B80005108513051585150517A6032608073CA1
:1000C8000319B80A0800BB0112150515851505178F
:1000D800A6032608043C0319B80A080012110511E2
:1000E800851485150517A6032608013C0319B80AC7
:1000F80008003308A6008510851105148516051714
:10010800A7032708073C0319B80A08000130BB00F9
:100118001215051485160517A7032708043C0319AB
:10012800B80A080012118512051405160517A70349
:100138002708013C0319B80A08003408A70005126B
:100148000513051485150614A8032808073C031988
:10015800B80A08000230BB001215051485150614EC
:10016800A8032808043C0319B80A0800121106104D
:10017800051485158517A8032808013C0319B80A32
:1001880008000530BA003B088207CC28D228D828B6
:100198000519D0280515080005110800851AD62864
:1001A80085160800851208000618DC2806140800C1
:1001B800061008008C10BA030319C52008000C109B
:1001C8000B308F00DB308E00B90303194C20080078
:1001D8002308A2000608A3000B10221BF828231FDF
:1001E800F828AE0A0130AF002E08043C031D292967
:1001F800221A2129231E21293008B300A60031081C
:10020800A700B4003208B500A8000130AF00AE0165
:10021800B80112118701051485150517CA2185141F
:1002280005168517CA21051585160614CA218501E4
:1002380006100515851505170800A21A2929A31EF9
:100248002929AE010130AF000800221A3329231AE8
:10025800A90A2908153C031D33290A30A900A21A46
:100268000800A31AA9032908093C031D0800143033
:10027800A900080083160317880189018316031350
:1002880085018701880186010616861606178113DF
:10029800811281110111811001148B170B178B1515
:1002A800161616179616C33092008C148312101364
:1002B80090161016901010140B308F00DB308E0043
:1002C80082308E00FF308F00FB30920006308100B4
:1002D800850186018701803088000A30A600A700C2
:1002E800A800A900B300B400B500FF30A500003095
:1002F800AD00AE00FF30A300A2000130AF00023015
:10030800B900B801051585150517BB010530BA00F8
:100318000B1993210C18E3202F1822208C298B13FA
:100328000B1106308100A50A03108701881B880D70
:10033800880D2D1CBA2108182608881826080819BF
:10034800270888192708081A2808881A2808081B5F
:100358002908881B2908AC00BE21251CB5292A08B4
:10036800B6292B08102087008B1708000130081BBE
:1003780088000800AB01AA010A302C02031CC72917
:10038800AC00AB0AC0292C08AA000800FF30B7004F
:10039800D021B70BCC290800FF30B600B60BD22904
:0203A80008004B
:04400E00D420FF3F7C
:00000001FF
