:020000002D28A9
:10000800F100030EF0000B181F20700E8300F10E94
:10001800710E090082073F3406345B344F3466346E
:100028006D347D3407347F34673477347C34393425
:100038005E34793471340B107308F2000608F3004B
:10004800721A2828731AF40AF21A0800F31AF40329
:100058000800831603178801890183160313850195
:1000680087018801860106168616061781138B17E5
:100078008B151616161796168312850186018701A9
:10008800013088000A30F600F700F800FF30F5006C
:100098004E204C28F50A03108701881B880D880D0F
:1000A8000818760808197708081A7808081B7908C4
:1000B800FC006620751C62287A0863287B080E20DD
:1000C800870008008B13FB01FA010A307C02031C2D
:1000D8007028FC00FB0A69287C08FA008B170800C6
:04400E00D420FF3F7C
:00000001FF
